:04000000F2EF00F02B
:08000800046ED8CF05F0E0CF33
:1000100006F00001E9CF0CF0EACF07F0E1CF08F0DD
:10002000E2CF09F0D9CF0AF0DACF0BF0F3CF12F01C
:10003000F4CF13F0FACF14F0F5CF15F0F6CF16F099
:10004000F7CF17F000C00EF001C00FF002C010F0A3
:1000500003C011F09DA230EF00F09EB263EF00F0FC
:100060007DA036EF00F07EB08BEF00F07DA43CEF7A
:1000700000F07EB4B3EF00F00EC000F00FC001F04E
:1000800010C002F011C003F00CC0E9FF07C0EAFF86
:10009000078E08C0E1FF09C0E2FF0AC0D9FF0BC00C
:1000A000DAFF12C0F3FF13C0F4FF14C0FAFF15C04B
:1000B000F5FF16C0F6FF17C0F7FF045006C0E0FFBB
:1000C00005C0D8FF10009E921A50170801E21A6A64
:1000D0001A501A2A006ED89000360050036A1D0F7D
:1000E000E96E000E0320EA6EECCF4FF0ED52EFCF39
:1000F0004EF04F324E324F324E324F324EC0BEFF74
:100100004F324F30300B006EBD50CF0B0010BD6E24
:100110009E923CEF00F07E901B50170801E21B6A94
:100120001B501B2A006ED89000360050036A1D0F2A
:10013000E96E000E0320EA6EECCF4FF0ED52EFCFE8
:100140004EF04F324E324F324E324F324EC067FF7A
:100150004F324F30300B006E6650CF0B0010666E82
:100160007E903CEF00F07E941C50170801E21C6A60
:100170001C501C2A006ED89000360050036A1D0FD8
:10018000E96E000E0320EA6EECCF4FF0ED52EFCF98
:100190004EF04F324E324F324E324F324EC05EFF33
:1001A0004F324F30300B006E0F015D51CF0B0010FE
:1001B0005D6F7E9400013CEF00F0EA6A4D0EE96E3F
:1001C000EF500EE0050E016E006A002EFED7012EE4
:1001D000FBD72E0E006E002EFED700D0EF2EF2D7EA
:1001E00083EF01F0F86AD09E078EEA6AE96A1A6A1C
:1001F000080E1B6E100E1C6EC150F00BC16E000E6F
:100200000F01386F3C6F396F3A6F3B6F0101886B9C
:10021000776A786A796A1D6A020E1E6E840E1F6EF6
:10022000020E206E216A030E226E6A0E236E030EEA
:10023000246EBB0E256E030E266EEE0E276E030E89
:10024000286E29682A6EEE0E2B6E030E2C6EBB0EE6
:100250002D6E030E2E6E6A0E2F6E030E306E316AF7
:10026000326E840E336E020E346E356A366E7B0E3D
:10027000376E010E386E396A3A6E960E3B6E3C6AE6
:10028000440E3D6E3E6A110E3F6E406A010E416E95
:10029000426A110E436E446A440E456E466A960EDB
:1002A000476E486A496A010E4A6E7B0E4B6E010E1C
:1002B0004C6E780E0609BA6EFF0EBB6E780E0609FC
:1002C0000F01516FFF0E526F780E06094A6FFF0E35
:1002D0004B6FF00EBD1666165D17800EBE6EBD50DC
:1002E000CF0BBD6E800E676E6650CF0B666E800EB4
:1002F0005E6F5D51CF0B5D6F9E927E907E94640E1B
:100300004D6E00015AD79380199081A0198019A0D1
:1003100032D019B230D0198294948B940C0EBD6EE9
:10032000B76AB66A010EB96EFC0E0F014917000ECE
:10033000491394928B920C0E666E656A646A010E84
:10034000636EE70E4917000E4913939A8A9A0C0EB2
:100350005D6F5C6B5B6B010E5A6F3F0E4917000EB1
:1003600049139E927E907E949D827D807D84C00EF6
:10037000F2120BD0000119B009D019A207D01992BE
:10038000F00EBD1666160F015D170001BCD7000EFA
:04039000016E0300F7
:020000040030CA
:0E00000000F21E3C00BF81000FC00FE00F4059
:00000001FF
;PIC18F45K22
;CRC=AC54  CREATED="03-out-14 15:45"
