:040000008AEF00F093
:08000800046ED8CF05F0E0CF33
:1000100006F00001E9CF0CF0EACF07F0E1CF08F0DD
:10002000E2CF09F0D9CF0AF0DACF0BF0F3CF12F01C
:10003000F4CF13F0FACF14F0F5CF15F0F6CF16F099
:10004000F7CF17F000C00EF001C00FF002C010F0A3
:1000500003C011F09DA230EF00F09EB257EF00F008
:100060000EC000F00FC001F010C002F011C003F08C
:100070000CC0E9FF07C0EAFF078E08C0E1FF09C016
:10008000E2FF0AC0D9FF0BC0DAFF12C0F3FF13C0B2
:10009000F4FF14C0FAFF15C0F5FF16C0F6FF17C035
:1000A000F7FF045006C0E0FF05C0D8FF10009E9285
:1000B0001A5203E11950170802E21A6A196A1AC0A3
:1000C00003F01950192AD8B41A2A4B6E03C04CF009
:1000D000D8904B34026E0334036E02501B0FE96E4E
:1000E000000E0320EA6EECCF4CF0ED52EFCF4BF058
:1000F0004C324B324C324B324C324BC0BEFF4C3246
:100100004C30300B006EBD50CF0B0010BD6E9E9278
:1001100030EF00F0F86AD09E078EEA6AE96AC18083
:10012000C182C184C1961B6A020E1C6E840E1D6EB4
:10013000020E1E6E1F6A030E206E6A0E216E030EE3
:10014000226EBB0E236E030E246EEE0E256E030E82
:10015000266E2768286EEE0E296E030E2A6EBB0EE1
:100160002B6E030E2C6E6A0E2D6E030E2E6E2F6AF2
:10017000306E840E316E020E326E336A346E7B0E38
:10018000356E010E366E376A386E960E396E3A6AE3
:10019000440E3B6E3C6A110E3D6E3E6A010E3F6E90
:1001A000406A110E416E426A440E436E446A960ED6
:1001B000456E466A476A010E486E7B0E496E010E17
:1001C0004A6E780E0609CA6EFF0ECB6E94948B941D
:1001D0000C0EBD6E800EBE6EBD50CF0BBD6E9E92DE
:0E01E0009D82C00EF212FFD7000E016E0300CA
:020000040030CA
:0E00000000220E0E000181000FC00FE00F4025
:00000001FF
;PIC18F252
;CRC=3A2E  CREATED="25-set-14 12:00"
