:1000000002EF00F0F86AD09EEA6AE96AC180C18214
:10001000C184C196C19CC28CC28EC18EC280C19067
:10002000C182C184C186000E016EC250C70B01108F
:10003000C26E000E0409CA6EFF0ECB6E94948B94B0
:100040000C0EBD6E800EBE6EBD50CF0BBD6E0B0E86
:10005000006E002EFED700D00000C284C2B4FED7CE
:10006000C3CF06F0C4CF07F00650085C03E1075089
:10007000095C1AE007C009F006C008F0C284C2B4E7
:10008000FED7C3CF0AF0C4CF0BF00B320A320B32CB
:100090000A320B320AC0BEFF0B320B30300B006E3F
:1000A000BD50CF0B0010BD6ED2D7000E016E030005
:020000040030CA
:0E00000000220E0E000181000FC00FE00F4025
:00000001FF
;PIC18F252
;CRC=7B06  CREATED="24-set-14 16:02"
