:100000006CEF01F00A0D647574793A2025642C2098
:10001000636F6E743A20256400008E0E006E0AC075
:1000200001F009C002F0036A015209E102C001F0C7
:10003000026A080E005E015202E1006A08D0D89000
:1000400001BE04D0023601360006F9D7019E8BEFBF
:1000500001F00950D8B471D0006E0D50D8B46DD0F5
:10006000002604E3810E002668E204D07F0E005EC5
:1000700064E363E00AC011F00E50111A0A8E0E8E6E
:100080000C501002F4CF13F00B500F02F4CF03F01A
:10009000F3CF12F01002F3501326F4501222000E88
:1000A00003220C500F02F3501326F4501222000EBC
:1000B000026A032202220A501002F3501226F45060
:1000C0000322000E02220A500F02F3500326F450BE
:1000D0000222000E016A01220C500E02F350122679
:1000E000F4500322000E022201220B500E02F350A4
:1000F0000326F4500222000E01220A500E02F35091
:100100000226F4500122002A01BE05D01236033621
:10011000023601360006000E12AE0AD0032A022271
:100120000122015005E1025003E1035001E1002AE0
:1001300011BE018E11AE019E04D0006A016A026AEE
:10014000036A9BEF01F08E0E006E0950005E0AC03C
:1001500002F00BC001F0028E005209E0D89002526A
:1001600002E1015204E002320132002EF7D70AAE5A
:1001700005D0011E021E012AD8B4022AA4EF01F004
:10018000949C8B9C080E016E00D00000018E0ED056
:10019000019E0F32D8B08B8CD8A08B9C018C06D0DE
:1001A000019C012EF6D700D000008B8C3F0EE96E2B
:1001B000E92EFED7000001BEEBD701BCF1D712003B
:1001C0000900F6CF0AF0F7CF0BF0F5CF0FF0D8DF2C
:1001D0000AC0F6FF0BC0F7FF092EF2D7120010502D
:1001E000016A0F5C03E20FC000F00CD0006A080E39
:1001F000116E0F3600361050005CD8B0006E01361C
:10020000112EF7D71200200E0AA8300E0B6E09C06F
:1002100000F009AE08D0001E002A00C009F02D0E23
:100220000B6E0A8E0A80015009C00FF0640E106E2A
:10023000D6DF00C009F0300E01240C6E09C00FF0AB
:100240000A0E106ECCDF300E00240E6E300E01242C
:100250000D6E0BC000F0300E0C5C04E00A820ABE8A
:100260000A8412D00BC00CF0200E0B6E300E0D5C09
:1002700004E00A800ABE0A8207D0D8A40A8004E1FA
:100280000CC00DF0200E0C6E0AB405D00AB206D0D8
:100290000AB007D009D00BC00FF072DF0CC00FF00E
:1002A0006FDF0DC00FF06CDF0EC00FF069DF1200C2
:1002B000EA6A0A0EE96EEF500DE0020E016E006A66
:1002C000002EFED7012EFBD7970E006E002EFED714
:1002D000EF2EF3D7D6EF01F0F86AD09EEA6AE96A0A
:1002E000949C8B8C04900A0E056E066A086A076A55
:1002F000C180C182C184C19694948B940C0EBD6E52
:10030000000E0409CA6EFF0ECB6E7F0EBE6E0A6A27
:1003100005C009F082D603C00CF002C00BF001C08A
:100320000AF000C009F0330E106E0F6E230E0E6E31
:10033000800E0D6E8ED603C00CF002C00BF001C013
:100340000AF000C009F0FFD601C006F006C0BEFFEB
:10035000040EF66E000EF76E080E096E31DF06C051
:1003600009F0180E0A6E4FDF0E0EF66E000EF76ED5
:10037000080E096E25DF05C009F0180E0A6E43DF6E
:1003800004B003D00A0E052402D00A0E055C056EE7
:1003900005505A0802E1048004D005500A0801E122
:1003A0000490020E096E960E0A6E82D7092EFBD7B4
:0803B000AED7000E016E030040
:020000040030CA
:0E00000000220E0E000181000FC00FE00F4025
:00000001FF
;PIC18F252
;CRC=150D  CREATED="16-abr-14 08:23"
