:0400000094EF00F089
:08000800046ED8CF05F0E0CF33
:1000100006F00001E9CF0CF0EACF07F0E1CF08F0DD
:10002000E2CF09F0D9CF0AF0DACF0BF0F3CF12F01C
:10003000F4CF13F0FACF14F0F5CF15F0F6CF16F099
:10004000F7CF17F000C00EF001C00FF002C010F0A3
:1000500003C011F09DA230EF00F09EB257EF00F008
:100060000EC000F00FC001F010C002F011C003F08C
:100070000CC0E9FF07C0EAFF078E08C0E1FF09C016
:10008000E2FF0AC0D9FF0BC0DAFF12C0F3FF13C0B2
:10009000F4FF14C0FAFF15C0F5FF16C0F6FF17C035
:1000A000F7FF045006C0E0FF05C0D8FF10009E9285
:1000B0001A50170801E21A6A1A501A2A006ED890CC
:1000C00000360050036A1B0FE96E000E0320EA6E33
:1000D000ECCF4EF0ED52EFCF4DF04E324D324E326E
:1000E0004D324E324DC0BEFF4E324E30300B006EA0
:1000F000BD50CF0B0010BD6E9E9230EF00F0EA6A4B
:100100004B0EE96EEF500EE0050E016E006A002EF8
:10011000FED7012EFBD72E0E006E002EFED700D08C
:10012000EF2EF2D717EF01F0F86AD09E078EEA6A39
:10013000E96A1A6AC180C182C184C1961B6A020E33
:100140001C6E840E1D6E020E1E6E1F6A030E206E44
:100150006A0E216E030E226EBB0E236E030E246EFA
:10016000EE0E256E030E266E2768286EEE0E296EA3
:10017000030E2A6EBB0E2B6E030E2C6E6A0E2D6EB6
:10018000030E2E6E2F6A306E840E316E020E326EAA
:10019000336A346E7B0E356E010E366E376A386EFA
:1001A000960E396E3A6A440E3B6E3C6A110E3D6EF5
:1001B0003E6A010E3F6E406A110E416E426A440E65
:1001C000436E446A960E456E466A476A010E486E53
:1001D0007B0E496E010E4A6E780E0609CA6EFF0E3E
:1001E000CB6EF00EBD161A501A2A006ED89000364B
:1001F0000050036A1B0FE96E000E0320EA6EECCF7D
:100200004CF0ED52EFCF4BF04C324B324C324B3284
:100210004C324BC0BEFF4C324C30300B006EBD50E8
:10022000CF0B0010BD6E9E92640E4B6E68D793800C
:10023000199081A0198019A00CD019B20AD0198286
:1002400094948B940C0EBD6E9E929D82C00EF21201
:1002500007D019B005D019A203D01992F00EBD161F
:08026000E6D7000E016E030059
:020000040030CA
:0E00000000220E0E000181000FC00FE00F4025
:00000001FF
;PIC18F252
;CRC=020E  CREATED="03-out-14 16:07"
