:04000000AAEF00F073
:08000800046ED8CF05F0E0CF33
:1000100006F00001E9CF0CF0EACF07F0E1CF08F0DD
:10002000E2CF09F0D9CF0AF0DACF0BF0F3CF12F01C
:10003000F4CF13F0FACF14F0F5CF15F0F6CF16F099
:10004000F7CF17F000C00EF001C00FF002C010F0A3
:1000500003C011F09DA430EF00F09EB45DEF00F0FE
:10006000A0A036EF00F0A1B079EF00F00EC000F0D4
:100070000FC001F010C002F011C003F00CC0E9FF86
:1000800007C0EAFF078E08C0E1FF09C0E2FF0AC00F
:10009000D9FF0BC0DAFF12C0F3FF13C0F4FF14C086
:1000A000FAFF15C0F5FF16C0F6FF17C0F7FF0450A2
:1000B00006C0E0FF05C0D8FF10009E94197019A07B
:1000C0000BD094948B84090EBD6ECF6ACE6A3A0E23
:1000D000BF6E980EBE6E0AD094948B94080EBD6EBF
:1000E000CF6ACE6A3A0EBF6E980EBE6E9E9436EF01
:1000F00000F0A190197219A20BD094928B82090E74
:10010000BA6EB36AB26A3A0EBC6E980EBB6E0AD073
:1001100094928B92080EBA6EB36AB26A3A0EBC6EB3
:10012000980EBB6EA19036EF00F0EA6A1A0EE96EE7
:10013000EF500EE0040E016E006A002EFED7012E75
:10014000FBD7DC0E006E002EFED70000EF2EF2D79C
:10015000E9EF00F0F86AD09E078EEA6AE96A949C9B
:100160008B8C1984C180C182C184C196850ECD6EED
:10017000CF6ACE6A8D0EB16EB36AB26A94948B84E4
:10018000090EBD6E3A0EBF6E980EBE6E94928B82B3
:10019000090EBA6E3A0EBC6E980EBB6E9E94A1907C
:1001A000C00EF2129380199681A019869382199835
:1001B00081A21988000E19B6010E1B6E000E19B827
:1001C000010E1B180EE019A40BD01994640E1A6EC0
:1001D000ACD719A603D09E949D8402D0A190A08094
:1001E0000ED019B40CD0198494948B84090EBD6E72
:1001F00094928B82BA6E9D94A09019921990D2D746
:06020000000E016E030078
:020000040030CA
:0E00000000220E0E000181000FC00FE00F4025
:00000001FF
;PIC18F252
;CRC=5341  CREATED="22-set-14 17:52"
