:10000000D2EF00F06C312025346C75202D206C323D
:100010002025346C750A0D00010E095E0CE3EA6AB6
:10002000090EE96EEF5007E0030E006E002EFED7BA
:1000300000D0EF2EF9D712000834006E0036FC0E07
:100040000016C250830B0010C26E640E096EE4DF0E
:10005000C282C2B2FED7C4CF03F0C3CF01F0C4CF77
:1000600002F01200949C8B9C080E016E00D00000E0
:10007000018E0ED0019E1132D8B08B8CD8A08B9CF3
:10008000018C06D0019C012EF6D700D000008B8C8D
:10009000020E006EE96AE92EFED7002EFBD700D0D3
:1000A00001BEE8D701BCEED712000900F6CF09F077
:1000B000F7CF0AF0F5CF11F0D5DF09C0F6FF0AC07F
:1000C000F7FF082EF2D71200EACF10F0E9CF0FF0B9
:1000D0000938F0090B6E0B26E20F0C6E320F0E6E14
:1000E00009500F0B0C260C260E26E90F0D6E0D265F
:1000F0000D2608380F0B0D260E260D360E360E1E59
:100100000E3608500F0B0E260B36070E0A6E0A0E1F
:100110000D060E26FDE30C060D26FDE30B060C2650
:10012000FDE30A060B26FDE3EA6A0A0EE96E070EF6
:100130000F140F9CE9260E0EE95CD8B40F8CEF501B
:10014000006E08E10FBC06D00FB813D00FB602D076
:10015000200E03D00F860F98300E0026EACF09F04C
:10016000E9CF08F000C011F07DDF09C0EAFF08C048
:10017000E9FFEE500FACDFD71200EA6A090EE96E14
:10018000EF500EE0130E016E006A002EFED7012E16
:10019000FBD7730E006E002EFED70000EF2EF2D7B5
:1001A00086EF01F0F86AD09EFE0E006E060E016E1C
:1001B000020EE96E000EEA6EEE6A002EFDD7012EE9
:1001C000FBD7EA6AE96A949C8B8CC150F00BC16E34
:1001D000000E0F01386F3C6F396F3A6F3B6F0101B2
:1001E000886B776A786A796A000E0409BA6EFF0E26
:1001F000BB6E94948B940C0EBD6EB76AB66A010EFA
:10020000B96EFC0E0F014917000E491394928B92A0
:100210000C0E666E656A646A010E636EE70E49171E
:10022000000E4913C150F00BC16E030E386F000E63
:100230003C6F396F3A6F3B6FC050C00B0709C06EFF
:10024000C08EC280000E016EC250830B0110C26EC0
:10025000640E096E0001E0DE086AEEDE02C005F001
:1002600001C004F005C002F004C001F00232013206
:1002700002320132023201C0BEFF02320230300BC4
:10028000006EBD50CF0B0010BD6E010E086ED4DEA7
:1002900002C007F001C006F007C002F006C001F07E
:1002A0000232013202320132023201C067FF0232F1
:1002B0000230300B006E6650CF0B0010666E040EDD
:1002C000F66E000EF76E030E086EEFDE010EE96E9D
:1002D00005C009F004C008F0F7DE0B0EF66E000E44
:1002E000F76E060E086EE1DE010EE96E07C009F03A
:1002F00006C008F0E9DE0A0E116EB4DE0D0E116EB6
:10030000B1DE040E086EFA0E096E37D7082EFBD741
:08031000A3D7000E016E0300EB
:020000040030CA
:0E00000000F31E3C00BF81000FC00FE00F4058
:00000001FF
;PIC18F45K22
;CRC=7173  CREATED="24-out-14 17:49"
