:1000000097EF00F00C647574793A20257500EA6A60
:100010000A0EE96EEF500EE0130E016E006A002E1C
:10002000FED7012EFBD7730E006E002EFED7000008
:10003000EF2EF2D7C7EF00F0949C8B9C080E016E58
:1000400000D00000018E0ED0019E0C32D8B08B8CF7
:10005000D8A08B9C018C06D0019C012EF6D700D035
:1000600000008B8C020E006EE96AE92EFED7002E8E
:10007000FBD700D001BEE8D701BCEED712000900C3
:10008000F6CF0AF0F7CF0BF0F5CF0CF0D5DF0AC0B2
:10009000F6FF0BC0F7FF092EF2D7D2EF00F00C509D
:1000A000016A0B5C03E20BC000F00CD0006A080E82
:1000B0000D6E0B3600360C50005CD8B0006E013669
:1000C0000D2EF7D71200015009C00BF0640E0C6E14
:1000D000E6DF00C009F00150300E07E10AA20CD0A3
:1000E0000AB60AD00AB8200E03D00A960A980A80E7
:1000F000012601C00CF0A0DF09C00BF00A0E0C6E47
:10010000CEDF00C009F00150300E06E10AB608D07B
:100110000AA006D00AB8200E012601C00CF08CDF20
:10012000300E092609C00CF087DFD7EF00F0F86A1F
:10013000D09EEA6AE96A949C8B8C046A056A076A15
:10014000066A0880000E7E6EC198C19A7F50E00B4F
:100150007F6E799A79987A6A7B6A94948B940C0E64
:10016000BD6EB76AB66A010EB96E000E0409CA6E9A
:10017000FF0ECB6E7F0EBE6E938081B01BD008A0A9
:1001800019D00890020E096E960E0A6E40D7092EFD
:10019000FBD704C0BEFF040EF66E000EF76E070E0E
:1001A000096E6DD704C009F01B0E0A6E8CD7080EBD
:1001B000042606D0938081A003D008B001D0088027
:0801C000DBD7000E016E030005
:020000040030CA
:0E00000000C61E1E008F81000FC00FE00F40D3
:00000001FF
;PIC18F45K20
;CRC=B367  CREATED="12-fev-14 13:48"
