:1000000002EF00F0F86AD09EFE0E006E060E016E42
:10001000020EE96E000EEA6EEE6A002EFDD7012E8A
:10002000FBD7EA6AE96A949C8B8CC180C182C18447
:10003000C196000E0409CA6EFF0ECB6E94948B9489
:100040000C0EBD6EC190C182C184C186C19CC28CA0
:10005000C28EC18EC280000E016EC250C70B01104D
:10006000C26E7C0E006E002EFED700D0C284C2B4D9
:10007000FED7C3CF04F0C4CF05F005C002F004C022
:1000800001F00232013202320132023201C0BEFFFF
:1000900002320230300B006EBD50CF0B0010BD6E2F
:0800A000E5D7000E016E03001C
:020000040030CA
:0E00000000220E0E000181000FC00FE00F4025
:00000001FF
;PIC18F252
;CRC=FCBA  CREATED="09-out-14 17:32"
