:04000000ECEF00F031
:08000800046ED8CF05F0E0CF33
:1000100006F00001E9CF0CF0EACF07F0E1CF08F0DD
:10002000E2CF09F0D9CF0AF0DACF0BF0F3CF12F01C
:10003000F4CF13F0FACF14F0F5CF15F0F6CF16F099
:10004000F7CF17F000C00EF001C00FF002C010F0A3
:1000500003C011F09DA430EF00F09EB457EF00F004
:100060000EC000F00FC001F010C002F011C003F08C
:100070000CC0E9FF07C0EAFF078E08C0E1FF09C016
:10008000E2FF0AC0D9FF0BC0DAFF12C0F3FF13C0B2
:10009000F4FF14C0FAFF15C0F5FF16C0F6FF17C035
:1000A000F7FF045006C0E0FF05C0D8FF10009E9483
:1000B000B36AB26A9E9430EF00F0949C8B9C080E59
:1000C000016E00D00000018E0ED0019E2232D8B009
:1000D0008B8CD8A08B9C018C06D0019C012EF6D76E
:1000E00000D000008B8C7C0EE96EE92EFED700005C
:1000F00001BEEBD701BCF1D71200EACF21F0E9CF66
:1001000020F01A38F0091C6E1C26E20F1D6E320F0B
:100110001F6E1A500F0B1D261D261F26E90F1E6E7F
:100120001E261E2619380F0B1E261F261E361F36AA
:100130001F1E1F3619500F0B1F261C36070E1B6E75
:100140000A0E1E061F26FDE31D061E26FDE31C06E5
:100150001D26FDE31B061C26FDE3EA6A1B0EE96E65
:10016000070E2014209CE9261F0EE95CD8B4208CD1
:10017000EF50006E08E120BC06D020B813D020B6A6
:1001800002D0200E03D020862098300E0026EACF21
:100190001AF0E9CF19F000C022F08FDF1AC0EAFF91
:1001A00019C0E9FFEE5020ACDFD711EF01F0EA6A89
:1001B0001A0EE96EEF500EE0040E016E006A002E7A
:1001C000FED7012EFBD7DC0E006E002EFED70000FE
:1001D000EF2EF2D71CEF01F0F86AD09E078EEA6A84
:1001E000E96A949C8B8C000E7E6EC198C19A7F50F8
:1001F000E00B7F6E799A79987A6A7B6A9484BD6AFB
:10020000040EBD6EB76AB66A010EB96ECD0EB16E40
:10021000C40EFF12100EE96EBFCF1AF0BECF19F058
:100220006CD70D0E226E49DF0A0E226E46DF040ED9
:10023000196EFA0E1A6EBBD7192EFBD7EBD7000E2C
:04024000016E030048
:020000040030CA
:0E00000000C21E1E008F81000FC00FE00F40D7
:00000001FF
;PIC18F45K20
;CRC=4AA1  CREATED="27-fev-14 13:26"
