:1000000091EF00F0949C8B9C080E016E00D00000D4
:10001000018E0ED0019E0F32D8B08B8CD8A08B9C55
:10002000018C06D0019C012EF6D700D000008B8CED
:100030007C0EE96EE92EFED7000001BEEBD701BCB5
:10004000F1D71200EACF0EF0E9CF0DF00738F00932
:10005000096E0926E20F0A6E320F0C6E07500F0B65
:100060000A260A260C26E90F0B6E0B260B260638ED
:100070000F0B0B260C260B360C360C1E0C360650BE
:100080000F0B0C260936070E086E0A0E0B060C26FF
:10009000FDE30A060B26FDE309060A26FDE3080632
:1000A0000926FDE3EA6A080EE96E070E0D140D9CA1
:1000B000E9260C0EE95CD8B40D8CEF50006E08E117
:1000C0000DBC06D00DB813D00DB602D0200E03D053
:1000D0000D860D98300E0026EACF07F0E9CF06F026
:1000E00000C00FF08FDF07C0EAFF06C0E9FFEE5047
:1000F0000DACDFD7E6EF00F0EA6A070EE96EEF50CD
:100100000EE0040E016E006A002EFED7012EFBD712
:10011000DC0E006E002EFED70000EF2EF2D7F1EFBE
:1001200000F0F86AD09EFE0E006E060E016E020E02
:10013000E96E000EEA6EEE6A002EFDD7012EFBD7A7
:10014000EA6AE96A949C8B8CC180C182C184C196A1
:10015000780E0409CA6EFF0ECB6E94948B940C0E2D
:10016000BD6EC190C182C184C186C19CC28CC28E49
:10017000C18EC280000E016EC250C70B0110C26E4C
:100180007C0E006E002EFED700D0C284C2B4FED713
:10019000C3CF04F0C4CF05F005C002F004C001F0E5
:1001A0000232013202320132023201C0BEFF02329B
:1001B0000230300B006EBD50CF0B0010BD6E100E24
:1001C000E96E05C007F004C006F03CD70A0E0F6EBA
:1001D00019DF0D0E0F6E16DF030E066EFA0E076E98
:0E01E0008BD7062EFBD7D1D7000E016E030081
:020000040030CA
:0E00000000220E0E000181000FC00FE00F4025
:00000001FF
;PIC18F252
;CRC=9A8D  CREATED="09-out-14 16:56"
