:10000000C9EF00F08E0E006E0AC001F009C002F0C8
:10001000036A015209E102C001F0026A080E005EA3
:10002000015202E1006A08D0D89001BE04D0023625
:1000300001360006F9D7019EE8EF00F00950D8B468
:1000400071D0006E0D50D8B46DD0002604E3810E3F
:10005000002668E204D07F0E005E64E363E00AC01D
:1000600011F00E50111A0A8E0E8E0C501002F4CFA1
:1000700013F00B500F02F4CF03F0F3CF12F0100285
:10008000F3501326F4501222000E03220C500F02DC
:10009000F3501326F4501222000E026A03220222A9
:1000A0000A501002F3501226F4500322000E0222CE
:1000B0000A500F02F3500326F4500222000E016A88
:1000C00001220C500E02F3501226F4500322000EAF
:1000D000022201220B500E02F3500326F45002229A
:1000E000000E01220A500E02F3500226F4500122A3
:1000F000002A01BE05D0123603360236013600064C
:10010000000E12AE0AD0032A02220122015005E19C
:10011000025003E1035001E1002A11BE018E11AE2D
:10012000019E04D0006A016A026A036AF8EF00F0D7
:100130008E0E006E0950005E0AC002F00BC001F086
:10014000028E005209E0D890025202E1015204E00E
:1001500002320132002EF7D70AAE05D0011E021E70
:10016000012AD8B4022A01EF01F0EA6A090EE96E09
:10017000EF500DE0020E016E006A002EFED7012E38
:10018000FBD7970E006E002EFED7EF2EF3D719EF98
:1001900001F0F86AD09EEA6AE96A949C8B8C04901C
:1001A0000A0E056E066A086A076AC180C182C184A8
:1001B000C19694948B940C0EBD6E000E0409CA6E09
:1001C000FF0ECB6E7F0EBE6E0A6A05C009F01AD70D
:1001D00003C00CF002C00BF001C00AF000C009F02F
:1001E000330E106E0F6E230E0E6E800E0D6E26D720
:1001F00003C00CF002C00BF001C00AF000C009F00F
:1002000097D701C006F006C0BEFF04B003D0010EB0
:10021000052402D0010E055C056E0550630802E15D
:10022000048004D005500A0801E10490320E096EE2
:0A0230009CD7CAD7000E016E030030
:020000040030CA
:0E00000000220E0E000181000FC00FE00F4025
:00000001FF
;PIC18F252
;CRC=0873  CREATED="16-abr-14 08:41"
