:04000000C7EF00F056
:08000800046ED8CF05F0E0CF33
:1000100006F00001E9CF0CF0EACF07F0E1CF08F0DD
:10002000E2CF09F0D9CF0AF0DACF0BF0F3CF12F01C
:10003000F4CF13F0FACF14F0F5CF15F0F6CF16F099
:10004000F7CF17F000C00EF001C00FF002C010F0A3
:1000500003C011F0F2AA30EF00F0F2B49DEF00F00F
:100060009DA036EF00F09EB096EF00F09DA23CEF11
:1000700000F09EB263EF00F00EC000F00FC001F080
:1000800010C002F011C003F00CC0E9FF07C0EAFF86
:10009000078E08C0E1FF09C0E2FF0AC0D9FF0BC00C
:1000A000DAFF12C0F3FF13C0F4FF14C0FAFF15C04B
:1000B000F5FF16C0F6FF17C0F7FF045006C0E0FFBB
:1000C00005C0D8FF10009E921B5203E11A5017087A
:1000D00002E21B6A1A6A1BC003F01A501A2AD8B42B
:1000E0001B2A4D6E03C04EF0D8904D34026E03347F
:1000F000036E02501C0FE96E000E0320EA6EECCF77
:100100004EF0ED52EFCF4DF04E324D324E324D3279
:100110004E324DC0BEFF4E324E30300B006EBD50E1
:10012000CF0B0010BD6E9E923CEF00F09E909D9014
:10013000F00EBD169E903CEF00F0F294F29A0C0E79
:10014000CF6ED50ECE6E9E909D8094908B900B0EB0
:10015000006E002EFED700D0000094908B80F294A9
:100160003CEF00F0EA6A4C0EE96EEF500EE0040E30
:10017000016E006A002EFED7012EFBD7DC0E006E4A
:10018000002EFED70000EF2EF2D736EF01F0F86A0E
:10019000D09E078EEA6AE96AC180C182C184C19695
:1001A0001C6A020E1D6E840E1E6E020E1F6E206AE9
:1001B000030E216E6A0E226E030E236EBB0E246E9A
:1001C000030E256EEE0E266E030E276E2868296E2E
:1001D000EE0E2A6E030E2B6EBB0E2C6E030E2D6ED2
:1001E0006A0E2E6E030E2F6E306A316E840E326EE2
:1001F000020E336E346A356E7B0E366E010E376E2C
:10020000386A396E960E3A6E3B6A440E3C6E3D6A11
:10021000110E3E6E3F6A010E406E416A110E426E33
:10022000436A440E446E456A960E466E476A486AB3
:10023000010E496E7B0E4A6E010E4B6E94908B80C0
:10024000880ED56E850ECD6E780E0609CA6EFF0E2D
:10025000CB6EF00EBD16800EBE6EBD50CF0BBD6EC8
:100260009E929E90F294640E4C6E7CD7938019906F
:1002700081A019809382199281A2198219A204D0B7
:1002800019B602D01986198019A013D019B411D04B
:100290001984198694948B940C0EBD6EAE0ED76E95
:1002A0009D0ED66E9E92F294F28A9D82C00EF2123C
:1002B00005D019B003D019A401D01994D7D7000ED6
:0402C000016E0300C8
:020000040030CA
:0E00000000220E0E000181000FC00FE00F4025
:00000001FF
;PIC18F252
;CRC=3718  CREATED="25-set-14 17:31"
